:020000040800F2
:10000000300A0020C10100085B2500089920000883
:1000100041250008370500081D32000800000000D7
:10002000000000000000000000000000E5270008BC
:100030000106000800000000D3250008E72700089B
:10004000DB010008DB010008DB010008DB01000820
:10005000DB010008DB010008DB010008DB01000810
:10006000DB010008DB010008DB010008DB01000800
:10007000DB010008DB01000839050008DB0100088E
:1000800045050008DB010008DB010008DB01000872
:10009000DB010008DB010008DB010008DB010008D0
:1000A000C9280008DB010008DB010008DB010008AB
:1000B000C9290008D5290008E1290008DB0100084A
:1000C000DB010008DB010008DB010008DB010008A0
:1000D000DB010008F1310008FD3100081132000891
:1000E000DB010008DB010008DB010008DB01000880
:1000F000DB010008DB010008DB010008DB01000870
:10010000DB010008DB010008ED290008DB01000825
:10011000DB010008DB010008DB010008DB0100084F
:10012000DB010008DB010008DB010008DB0100083F
:10013000DB010008DB010008DB010008DB0100082F
:10014000DB010008DB010008DB010008DB0100081F
:10015000DB010008DB01000851050008DB01000895
:10016000DB010008DB010008DB010008DB010008FF
:10017000DB010008DB010008DB01000800000000D3
:10018000DB010008DB010008DB010008DB010008DF
:10019000DB010008DB010008DB010008DB010008CF
:1001A000DB010008DB010008DB010008DFF80CD0F0
:1001B00000F084F900480047E9320008300A0020C6
:1001C0000648804706480047FEE7FEE7FEE7FEE7F1
:1001D000FEE7FEE7FEE7FEE7FEE7FEE7752800081C
:1001E000AD0100082DE9F05F0546002092469B46D0
:1001F00088460646814640241BE02846414647463D
:10020000224600F0EDF853465A46C01A914110D3E9
:1002100011461846224600F0D4F82D1A67EB010863
:100220004F4622460120002100F0CBF817EB0009D1
:100230004E41201EA4F10104DFDC484631462A4627
:100240004346BDE8F09FD2B201E000F8012B491E01
:10025000FBD270470022F6E710B513460A46044663
:100260001946FFF7F0FF204610BD2DE9F04D81EA59
:10027000030404F0004B21F0004514464FF0000A3F
:1002800023F0004150EA050220D054EA01021DD0BB
:10029000C5F30A570246C5F31303C1F31300C1F3B4
:1002A0000A5640F4801543F48013A7EB0608101B90
:1002B000D64608F2FD3873EB050002D308F10108B9
:1002C00001E092185B41B8F1000F03DA002001460B
:1002D000BDE8F08D00204FF48011064684460EE004
:1002E000171B73EB050705D3121B63EB05030643CE
:1002F0004CEA010C49084FEA300092185B4150EA81
:100300000107EDD152EA030012D082EA040083EA29
:100310000501084305D0101BAB4106D20122002382
:1003200006E000224FF0004302E06FF0010253109C
:100330001AEB06004CEB085110EB0A0041EB0B01E5
:10034000BDE8F04D00F05CB80EB5C10F80EAE0707A
:100350000844CA07002140F233438DE80E000A46E4
:100360000B4600F05CF803B000BD0EB540F233411F
:1003700002910021CDE900110A460B4600F04FF82A
:1003800003B000BD70B5C1F30A5201F0004500246E
:10039000C1F3130140F2FF3341F480119A4201DAB4
:1003A000002070BD40F233439A42A2F2334203DC94
:1003B000524200F015F800E090402C43F1D040424A
:1003C00070BD202A04DB203A00FA02F100207047B9
:1003D0009140C2F1200320FA03F319439040704783
:1003E000202A04DB203A21FA02F00021704721FA8A
:1003F00002F3D040C2F120029140084319467047F1
:1004000010B5141E73F1000408DA401C41F100011C
:1004100092185B411A4301D120F0010010BD2DE973
:10042000F04D92469B4611B1B1FA81F202E0B0FA6A
:1004300080F220329046FFF7C4FF04460F4640EAA0
:100440000A0041EA0B0153465A46084313D01146AD
:1004500053EA010019D0C8F140025046FFF7C0FF2F
:1004600005460E46504659464246FFF7AAFF084346
:1004700005D0012004E020463946BDE8F08D00207B
:10048000054346EAE0762C4337430A986305E40ABD
:10049000A0EB08000022FD0A44EA47540A3002D5C6
:1004A00000200146E9E7010510196941DDE9084529
:1004B00000196941BDE8F04DA2E70000064C074D68
:1004C00006E0E06840F0010394E807009847103424
:1004D000AC42F6D3FFF76EFE74370008943700087D
:1004E00070B58C1810F8015B15F0070301D110F8F6
:1004F000013B2A1106D110F8012B03E010F8016B23
:1005000001F8016B5B1EF9D12B0705D40023521EA5
:100510000DD401F8013BFAE710F8013BCB1A921C0D
:1005200003E013F8015B01F8015B521EF9D5A1420B
:10053000D8D3002070BDFEE7014800F0BDB8000030
:1005400060050020014800F0B7B800000005002059
:10055000014800F0B1B80000A00400200168182391
:10056000CAB2103AB2FBF3F2054B6FF30901032A4A
:100570009B5CC36500D9091D816508467047000072
:100580005437000810B5014600208B698A6A4FF085
:10059000C07453B1B3F5005F15D072B1012A0CD00D
:1005A000022A0AD0032A09D104E01AB1012A06D08E
:1005B000022A03D1C96AC90100D5012010BDC96A48
:1005C000A142FAD010BD002AF7D0012AF2D0022AA7
:1005D000F3D0032AF3D010BD30B50468256825F4A4
:1005E00080252560046863608368402B036803D01E
:1005F00099600068C26030BD9A600068C16030BD1B
:10060000704770472DE9F0410446876D00F0C8FA45
:10061000064694F835000025022806D08020606543
:1006200084F834500120BDE8F0812068016821F091
:10063000160101602068416921F080014161206C50
:1006400008B9A06C20B12068016821F008010160A0
:100650002068016821F0010101600BE000F0A0FAC0
:10066000801B052806D92020606504F8345F03202C
:100670006070D8E720680068C007EFD194F85C107C
:100680003F208840B86004F8345F0120607000208B
:10069000C9E790F83510022903D080214165012077
:1006A0007047052180F835100068016821F00101CC
:1006B00001600020704700002DE9F84304464FF028
:1006C0000009CDF8009063484FF41651A56D0068FD
:1006D000B0FBF1F72E6894F85C10082000FA01F1E5
:1006E00031420FD021680A6852070BD50A6822F000
:1006F00004020A6094F85C108840A860606D40F0C5
:100700000100606594F85C104FF0010808FA01F0F0
:10071000304208D021684969090604D5A860606D97
:1007200040F00200606594F85C100420884030427C
:1007300008D021680968890704D5A860606D40F079
:100740000400606594F85C1010208840304218D096
:1007500021680968090714D5A86020680168490361
:1007600004D50068000308D5A16C07E00168C9053D
:1007700003D4016821F008010160216C09B1204611
:10078000884794F85C1020208840304231D021689E
:100790000968C9062DD5A86094F835000528206899
:1007A000016806D0490347D5006800031DD4616C79
:1007B0001CE021F0160101602068416921F08001F0
:1007C0004161206C08B9A06C20B12068016821F05B
:1007D0000801016094F85C103F208840A86084F80C
:1007E000349084F83580216D1FE0E16B09B120461B
:1007F0008847606D00282BD0606DC00714D005209D
:1008000084F835002068016821F00101016000983A
:10081000401C0090B84203D820680068C007F6D199
:1008200084F8349084F83580E16C002910D001B050
:100830002046BDE8F04308470168C905D5D40168E2
:1008400021F01001016084F8349084F83580CCE701
:10085000BDE8F883240200202DE9F041044600F0B1
:100860009FF906465CB1002584F83450022084F8D4
:1008700035002068016821F0010101600DE00120D0
:10088000BDE8F08100F08CF9801B052805D92020F7
:100890006065032084F83500F2E720680068C0072F
:1008A000F0D12268116820480140D4E901031843BF
:1008B000D4E903363343184363691843A3691843E3
:1008C000E3691843236A18430843616A042903D182
:1008D000D4E90B1319430843106020684069666A25
:1008E00020F0070130460E43012704280CD1A06AEE
:1008F0000643E06A40B12046FFF744FE20B14020A5
:10090000606584F83570BAE7206846612046FFF7D5
:1009100025FE94F85C203F2191408160656584F854
:1009200035700020ACE700003F8010F02DE9F04169
:100930000446866D90F83400002501280DD0012072
:1009400084F8340094F835700020012F07D084F823
:10095000340002252846BDE8F0810220FBE702278B
:1009600084F8357060652046FFF736FE94F85C1019
:100970003F208840B0602068016841F016010160A6
:100980002068416941F080014161206C20B12068FC
:10099000016841F0080101602068016841F001012F
:1009A0000160D7E770B5044600F0FAF80546601C10
:1009B00002D004480078044400F0F2F8401BA04242
:1009C000FAD370BD180200202DE9F84FDFF890B17E
:1009D00000224FF001084FF0030A4FF00F090BF10E
:1009E000040E00BF0B6808FA02F42340A3426ED144
:1009F0004D68022D01D0122D0ED1D50800EB850CCB
:100A0000DCF820505607F70E09FA07F6B5430E69D1
:100A1000BE402E43CCF82060066855000F790AFAD4
:100A200005FC07F0030726EA0C06AF4037430760D2
:100A30004E68012E05D0022E03D0112E01D0122EA9
:100A40000ED18768CE6827EA0C07AE403E43866029
:100A50004668A6430C79C4F30014944034434460C0
:100A6000C4688E6824EA0C04AE402643C6604C6815
:100A7000E4006FD53B4C256845F48045256024682B
:100A800022F0030504F480440094374C2E19D6F864
:100A9000084895072F0F09FA07F5AC43334DA842D4
:100AA00001D100252EE0324DA84201D1012529E0D7
:100AB000304DA84201D1022524E02F4DA84201D19A
:100AC00003251FE02D4DA84202D104251AE041E084
:100AD0002B4DA84201D1052514E02A4DA84201D191
:100AE00006250FE0284DA84201D107250AE0274D31
:100AF000A84201D1082505E0254DA84201D10925CC
:100B000000E00A25BD402543C6F80858DBF8004040
:100B10005D464E689C43F60300D51C432C60DEF80E
:100B2000004075464E689C43B60300D51C432C60BC
:100B30000B4D08352C684E689C43F60200D51C43CB
:100B40002C60074D0C352C684E689C43B60200D5CE
:100B50001C432C60521C102AFFF444AFBDE8F88FF0
:100B6000003C014044380240003001400000024097
:100B70000004024000080240000C02400010024045
:100B80000014024000180240001C024000200240F5
:100B9000002402400AB1816170470904FBE70000AC
:100BA00001488068704700001802002002488168F0
:100BB0000278114481607047180200200B4810B57C
:100BC000016841F400710160016841F480610160D5
:100BD000016841F480710160032000F06FF800208B
:100BE00000F006F800F024F8002010BD003C0240A0
:100BF00070B50D4D04464FF47A712878B1FBF0F0D2
:100C00000A490968B1FBF0F000F01AFB48B9102C52
:100C100007D200222146501E00F030F800206C6000
:100C200070BD012070BD00001802002024020020C9
:100C30000A4808B5016841F480410160006800F489
:100C4000804000900548001F016841F0805101601C
:100C5000006800F08050009008BD00004438024059
:100C6000002809DB00F01F020121914040098000AB
:100C700000F1E020C0F8001170470000F0B40E4B06
:100C80001B680C46C3F30223C3F10705042D00D9EA
:100C90000425191D072901D2002300E0DB1E0126CF
:100CA00006FA05F1491E214099409E40761E1640E5
:100CB0003143F0BC02F0F8BA0CED00E0064900F058
:100CC000070208684FF6FF03184040EA0220034A73
:100CD00010430860704700000CED00E00000FA05CA
:100CE0002DE9F8431748016841F080510160006820
:100CF000154F00F08050012600903E64FFF750FF32
:100D000005464FF47A78114C05E000BFFFF748FF25
:100D1000401B40450DD86068C003F7D57E64FFF7DF
:100D20003FFF0546464607E0FFF73AFF401BB0424B
:100D300002D90320BDE8F88360688003F4D5002061
:100D4000F8E700004038024000000E42007000400A
:100D50002DE9F0470E46050065D0DFF81481D8F87C
:100D60000000F7B200F00F00B04207D288F8007020
:100D7000D8F8000000F00F00B04254D128683D4C74
:100D8000810712D5400703D5206840F4E050206069
:100D90002878000703D5206840F460402060206870
:100DA000A96820F0F000084320602878C0072DD003
:100DB000304968680839012812D0022813D0032866
:100DC00011D00968890700292DDA216821F0030173
:100DD00001432160FFF7E4FE814641F2883A0EE0CC
:100DE00009688903EFE709688901ECE7FFF7D8FE96
:100DF000A0EB0901514502D90320BDE8F087206826
:100E0000696800F00C00B0EB810FEFD1D8F800104A
:100E1000404601F00F01B14207D90770006800F0A9
:100E20000F00B04201D00120E7E72878400705D540
:100E30002068E96820F4E050084320602878000723
:100E400006D52068296920F4604040EAC10020608E
:100E500000F036F82168084AC1F30311515CC8401C
:100E6000064908600020FFF7C3FE0020C5E7000028
:100E7000003C0240083802405C3700082402002091
:100E80000448054900680968044AC1F38221515C9D
:100E9000C840704724020020083802406C37000820
:100EA0000448054900680968044AC1F34231515CAD
:100EB000C840704724020020083802406C37000800
:100EC000154810B5006810F00C02144813D01449EE
:100ED000042A0FD0082A0ED10F4C241F2268236841
:100EE00002F03F025B0207D52068C0F38810A0FB28
:100EF000010106E0084610BD2168C1F38811A1FB7D
:100F000000010023FFF76EF92168C1F30141491C7C
:100F10004900B0FBF1F010BD083802400024F40095
:100F200040787D012DE9F84F050076D02878DFF86C
:100F3000F8B2BE4CC00749D0DBF800105846C1F3E8
:100F40008101012908D00068C0F3810002280AD17C
:100F5000201D0068400206D52068800336D56868E9
:100F60000028E2D032E06868B0F5803F10D0B0F5DC
:100F7000A02F206810D020F480302060206820F45A
:100F8000802020606868A0B1FFF70AFE06460CE0EA
:100F9000206840F48030F4E740F480202060F7E7D8
:100FA000FFF7FEFD801B642873D820688003F7D507
:100FB0000CE0FFF7F5FD064605E000BFFFF7F0FD8A
:100FC000801B6428F0D820688003F7D42878DFF8E5
:100FD000608280074FF000093ED5DBF800105846CC
:100FE00011F00C0F09D00068C0F3810002280BD16A
:100FF0008D48001F0068400206D42068800715D580
:10100000E868012809D111E0E868B8B10120C8F802
:101010000000FFF7C5FD064605E002E1FFF7C0FD51
:10102000801B0228C0D820688007F7D5206829696E
:1010300020F0F80040EAC10020600DE0C8F8009000
:10104000FFF7AEFD064604E0FFF7AAFD801B02286D
:101050001FD820688007F7D42878000722D5724E61
:10106000744869696C3671B101210160FFF798FD20
:10107000074604E0FFF794FDC01B022809D830683A
:101080008007F7D50EE0C0F80090FFF789FD07460E
:1010900005E083E0FFF784FDC01B02287ED830689E
:1010A0008007F7D42878400768D5DFF87CA10027AF
:1010B0000AF1380ADAF80000C0000BD4DAF80010A0
:1010C00041F08051CAF80010DAF80000012700F062
:1010D00080500090584E3068C00510D4306840F4FD
:1010E00080703060FFF75CFD009005E0FFF758FD71
:1010F0000099401A022851D83068C005F6D54A4EEA
:10110000A868683601280FD00528306810D020F074
:1011100001003060306820F004003060A868B8B189
:10112000FFF73EFD00900FE0306840F00100F4E76B
:1011300040F004003060F7E7FFF732FD0099411AF4
:1011400041F28830814264D830688007F4D50EE0DF
:10115000FFF726FD009007E0FFF722FD0099411AF6
:1011600041F28830814254D830688007F4D42FB1DE
:10117000DAF8001021F08051CAF80010A869C0B355
:10118000DBF80010C1F3810102294AD00228484649
:1011900007D0C8F86000FFF703FD00E039E005461E
:1011A0003AE04746C8F86000FFF7FAFC064604E05C
:1011B000FFF7F6FC801B02282BD820688001F7D4AB
:1011C000D5E907010843A96A1C4A490802EB014115
:1011D0006A6A41EA8211084395F82C1040EA0161DD
:1011E0001148001F016001203866FFF7D9FC054651
:1011F00005E014E0FFF7D4FC401B022809D8206862
:101200008001F7D50BE000BFFFF7CAFC401B0228A6
:1012100002D90320BDE8F88F20688001F4D40020B3
:10122000F8E70120F6E700000838024000380240E5
:1012300000004742800E4742007000400000FFFF60
:1012400010B5401EB0F1807F01D3012010BD4FF0DA
:10125000E02460610F21601702F026F80020A061F1
:1012600007202061002010BD7047704710B590F82E
:101270003C20012A22D0012280F83C20CA688C68D8
:1012800022F4407222434C6822F4806222430C68AC
:1012900022F4006222430C6922F4805222434C69FA
:1012A00022F400522243C969002322F480420A43F7
:1012B00001684A6480F83C30002010BD022010BD57
:1012C00070B590F83C20012A19D0012400F83C4F59
:1012D0000222427050F83C3C5A689D6822F0700629
:1012E0000A684968324325F0800529435A6050F85E
:1012F0003C2C9160447000210170084670BD0220B2
:1013000070BD2DE9F0410D46040003D094F83D0076
:1013100018B108E00120BDE8F081002084F83C000D
:10132000204600F03BF8022084F83D0020688168E8
:1013300044F2070291438160211D206801F05CFBAB
:10134000226890689169166A2B68AF69034340F27E
:101350000330814341EA0721A868EF6908434FF64B
:10136000FC418843E96840EA0720014328692F6A65
:10137000000140EA0730084369686D6926F0AA0653
:1013800046EA05152943936022689061206801624E
:10139000012084F83D000020BDE70000F0B587B0D3
:1013A000044614216846FEF755FF68492368002467
:1013B000664A1039022501276548B3F1804F39D0BC
:1013C000DFF890C14026634554D1136843F002030F
:1013D0001360126802F0020205920A6842F00102EC
:1013E0000A600A6802F0010205920A6842F00402EB
:1013F0000A6009680096CDE9015401F00401CDE9C5
:10140000045103946946FFF7DFFA80200090CDE98C
:10141000015469465048CDE90345FFF7D5FA00224B
:1014200011461D20FFF72AFC5FF01D00FFF718FC96
:1014300007B0F0BD136843F001031360126802F0B7
:10144000010205920A6842F001020A60096801F08F
:101450000101059122210091CDE90154CDE9034715
:101460006946FFF7B1FA002211461C20FFF706FC7F
:101470001C20DBE7DFF8E4C0634532D1106840F0A0
:1014800004001060106800F004000590086840F047
:1014900008000860086800F008000590086840F03F
:1014A000020008600868694600F0020005904FF4E9
:1014B00000500090CDE901542948CDE90345FFF7DC
:1014C00083FA0096CDE9015469462648CDE90345E3
:1014D000FFF77AFA002211461E20FFF7CFFB1E20ED
:1014E000A4E7214EB342A3D1136843F0080313606D
:1014F000126802F0080205920A6842F001020A60CE
:101500000A6802F0010205920A6842F080020A604D
:1015100009680097CDE9015401F08001CDE904513B
:1015200003946946FFF750FAF0140090CDE9015496
:1015300069460E48CDE90345FFF746FA00221146F9
:101540003220FFF79BFB322070E70000403802405A
:101550000000024000040040000802400008004073
:10156000000C024000040240000C0040001C02403D
:1015700010B50446006891B1042904D0012200216D
:1015800001F09EFA206801225FF0040101F098FA50
:101590002068016841F001010160002010BD0122B6
:1015A0000021F3E7704700002DE9F041044690F870
:1015B0003C000D4601283DD0012684F83C60022005
:1015C00084F83D00AAB3042A46D02068082A55D0E2
:1015D000D5E90027E968036A23F480530362D0F851
:1015E0001CC0036A2CF4407C4CEA07274FF6FF7CB2
:1015F00027F470470CEA013139434FF4204723F4B4
:10160000204307EA02321A43C16102622068C169BD
:1016100021F44061C1612068C169AA6841EA0221E0
:10162000C0F81C1084F83D60002084F83C00BDE840
:10163000F08101E00220FAE7D5E90012EB682068AA
:1016400001F00EFB2068816921F00C0181612068A6
:101650008169AA6811430FE0D5E90012EB682068A0
:1016600001F03EFB2068816921F4406181612068BE
:101670008169AA6841EA02218161D3E7D5E9002C9A
:101680002F7B016A21F480710162C169036A21F034
:10169000030141EA0C0121F0F00C39074FF42067F7
:1016A0004CEA116123F4206307EA02221A43C16164
:1016B00002622068C16921F00C01C1612068C16922
:1016C000AA681143ACE710B5040003D094F83D00BC
:1016D00010B107E0012010BD002084F83C00204636
:1016E00000F00CF8022084F83D00211D206801F074
:1016F00083F9012084F83D00002010BD10B586B0AC
:10170000044614216846FEF7A5FD17492068884263
:1017100027D116480021026842F480320260006836
:1017200000F48030059011481438026842F010022D
:101730000260006800F01000059020200090022058
:10174000CDE901010320CDE9031069460848FFF700
:101750003BF9002211461820FFF790FA1820FFF7F6
:101760007FFA06B010BD000000400140443802403E
:101770000010024010B50268044631B1042908D0B7
:1017800008291AD00C2908D11BE0D06840F00200CB
:1017900002E0D06840F00400D0600122206801F02F
:1017A0008FF92068816801F00701062903D00168DC
:1017B00041F001010160002010BDD06840F0080038
:1017C000EAE7D06840F01000E6E770B5044600682C
:1017D00001694FF00005C943890715D4C168C943A1
:1017E000890711D4E91E01610120207720688069F2
:1017F0008007204602D0FFF7D5FE04E000F0D6F8BF
:10180000204600F06BF9257720680169C943490734
:1018100017D4C168C943490713D46FF004010161AB
:10182000022020772068806910F4407F204602D093
:10183000FFF7B8FE04E000F0B9F8204600F04EF9DA
:10184000257720680169C943090716D4C168C943CF
:10185000090712D46FF00801016104202077206885
:10186000C0698007204602D0FFF79CFE04E000F02C
:101870009DF8204600F032F9257720680169C943B8
:10188000C90617D4C168C943C90613D46FF0100143
:101890000161082020772068C06910F4407F20464D
:1018A00002D0FFF77FFE04E000F080F8204600F051
:1018B00015F9257720680169C943C90708D1C168AE
:1018C000C943C90704D1891E0161204600F02AF9E5
:1018D00020680169C943090609D4C168C9430906DA
:1018E00005D46FF0800101612046FFF7BDFC206840
:1018F0000169C943490609D4C168C943490605D4E9
:101900006FF040010161204600F022F92068016972
:10191000C94389060BD4C168C943890607D46FF04F
:10192000200101612046BDE87040FFF79EBC70BDFC
:1019300070B586B0044614216846FEF78BFC174943
:101940002068884228D116480024016841F004012B
:101950000160016801F004010591016841F48071A2
:1019600001600068022500F4807005904FF440701B
:101970000090CDE901540326CDE9034669460948A4
:10198000FFF722F860200090CDE90154CDE903462D
:1019900069460548FFF718F806B070BD000401401D
:1019A000303802400008024000200240704770B505
:1019B000044690F83C000D4601280DD0012684F81D
:1019C0003C60022084F83D0042B1042A18D0082A65
:1019D0002AD00C2A4DD139E0022070BD206801F0D8
:1019E0007DF82068816941F0080181612068816982
:1019F00021F004018161206881692A69114311E0A5
:101A0000206801F09BF82068816941F400618161E0
:101A10002068816921F480618161206881692A6977
:101A200041EA0221816124E0206801F0BDF82068CC
:101A3000C16941F00801C1612068C16921F0040158
:101A4000C1612068C1692A69114311E0206801F071
:101A5000DFF82068C16941F40061C1612068C16993
:101A600021F48061C1612068C1692A6941EA0221CB
:101A7000C16184F83D60002084F83C0070BD10B561
:101A8000040003D094F83D0010B107E0012010BD20
:101A9000002084F83C00204600F00CF8022084F876
:101AA0003D00211D206800F0A7FF012084F83D00C3
:101AB000002010BD08B500680649884208D10648D4
:101AC000016841F002010160006800F0020000902E
:101AD00008BD000000040140443802407047000087
:101AE00010B504460068012200F0EAFF0B492068A7
:101AF000884202D00A49884203D1416C41F4004136
:101B000041642068816801F00701062903D001685B
:101B100041F001010160002010BD00000000014003
:101B20000004014070470246002041B1042909D059
:101B300008290AD00C2901D11068006C7047106880
:101B4000406B70471068806B70471068C06B7047BF
:101B5000704710B504460068416994F83920C1F314
:101B6000C011212A0BD151B1416921F0800141619D
:101B7000206B08B1FEF746FD204601F02AF92068E7
:101B8000416994F83A20C1F38011222A0BD151B156
:101B9000416921F040014161606B08B1FEF732FDFF
:101BA000204601F008F9002010BD704770B50268AA
:101BB00004461068D168536910F00F0F50D003F03D
:101BC000010501F4907635435DD0C20705D0CA0502
:101BD00003D5E26B42F00102E263420705D5DA0762
:101BE00003D0E26B42F00202E263820705D5DA0716
:101BF00003D0E26B42F00402E263020705D5DA0784
:101C000003D0E26B42F00802E263E26B002A33D0B9
:101C1000800604D5880602D5204601F0E3F8206846
:101C20004069E16BC0F38010090700D428B3204657
:101C300001F0C1F82068416949061AD5416921F0CF
:101C400040014161606BA0B11B490165606BFEF70B
:101C500020FD002810D0606B016DBDE87040084782
:101C6000830610D58B060ED52046BDE8704001F0E6
:101C7000B9B82046FFF799FF70BD2046FFF795FFE2
:101C80000020E06370BD030606D50B0604D5204690
:101C9000BDE8704001F048BA4006F3D54806F1D5DA
:101CA000D168204621F04001D160202184F839100C
:101CB00000F0F1F970BD0000172D000870B50400A8
:101CC00004D094F83900002510B106E0012070BD61
:101CD00084F83850204600F023F8242084F8390096
:101CE0002068C16821F40051C160204601F0C6F8A7
:101CF0002068016921F4904101612068416921F067
:101D00002A0141612068C16841F40051C160E56366
:101D1000202084F8390084F83A00002070BD0000CB
:101D20002DE9F04F87B0054614216846FEF792FA78
:101D3000DFF8DC810221D5F800C0002475480122BB
:101D400003230726DFF8D0B18F064FF48069C4451E
:101D50003CD1DFF8C0C10CF1140CDCF8008048F075
:101D60001008CCF80080DCF800C00CF0100CCDF8A6
:101D700014C0D0F800C04CF0010CC0F800C00068DE
:101D800000F00100059058028DE84F006946584662
:101D9000FEF71AFE624E6148E6E802074020A6E818
:101DA00011025F4846F81449B461F4613462746208
:101DB000FEF752FD08B1FEF724FC2E630022114607
:101DC0002520B563FEF75AFF25203EE0DFF8548159
:101DD000DFF840A1C4450AF1100A3BD1DAF80080CF
:101DE00048F40038CAF80080DAF800C00CF4003C6F
:101DF000CDF814C0D0F800C04CF0010CC0F800C001
:101E0000006800F0010005900C208DE84F00694645
:101E10005846FEF7D9FD454E43483060C6E9017487
:101E2000C6E903497461B461F46134623046746296
:101E3000FEF712FD08B1FEF7E4FB6E6300221146C7
:101E40002620B563FEF71AFF2620FEF709FF07B02C
:101E5000BDE8F08FDFF8D880C445F8D1DAF800800B
:101E600048F48028CAF80080DAF800C00CF4802C0E
:101E7000CDF814C0D0F800C04CF0020CC0F800C07F
:101E8000D0F800C00CF0020CCDF814C0D0F800C09F
:101E90004CF0080CC0F800C000688A4600F008004A
:101EA00005904FF40060CDE9000A0292CDE90336B7
:101EB00090469B4669461F48FEF786FD4FF48070AA
:101EC000CDE9000ACDF80880CDE903B669461A4885
:101ED000FEF77AFD1448194E3038E6E80207402034
:101EE000A6E81102154846F81449B461F461346259
:101EF0007462FEF7B1FC08B1FEF783FB2E6300228B
:101F000011462720B563FEF7B9FE27209DE70000A4
:101F1000001001403038024000000240B864024026
:101F2000A00400200044004088600240000500201A
:101F30000048004000040240000C02406005002000
:101F4000F8B5044690F83A0020283CD1C1B3BAB3A2
:101F500094F83800012836D0012084F83800A162B6
:101F6000A2850025E563222084F83A00636B1748B8
:101F7000D863636B16481864636B1648D864606B4B
:101F8000134605650846666B216802463046091D02
:101F9000FEF7CCFC206801684168009184F8385055
:101FA000C16841F48071C1602068416941F001015C
:101FB00041612068416941F0400141610020F8BD64
:101FC000FFE70120FBE70220F9E70000712D000880
:101FD000AD2D0008272D0008704770472DE9F84304
:101FE000044690F839001F4616460D46202850D169
:101FF000A5B19EB194F8380001284AD0012084F898
:1020000038004FF00008C4F83C80212084F83900E3
:10201000FEF7C6FDA6848146E68426E00120BDE8E1
:10202000F883E08C401EE084A0684B46B0F5805FEA
:102030004FF000024FF080012046009703D001F0DE
:10204000A4F8E8B90DE001F0A0F8C8B92888216823
:10205000C0F308004860206908B16D1C05E0AD1CA4
:1020600003E0216815F8010B4860E08C0028D8D106
:102070004B46002240212046009701F086F808B127
:102080000320CCE7202084F8390084F83880002031
:10209000C5E70220C3E77047FEE70000154808B512
:1020A000016841F400110160016801F40011009120
:1020B000016841F4800101600068002200F48000A2
:1020C000009011460E20FEF7D9FD0E20FEF7C8FD48
:1020D000002211461020FEF7D1FD1020FEF7C0FDB2
:1020E000002211464620FEF7C9FDBDE80840462003
:1020F000FEF7B6BD303802402DE9F04F87B014210D
:102100006846FEF7A7F86F480025016841F0100106
:102110000160016801F010010591016841F48071CE
:102120000160016801F480710591016841F02001AE
:102130000160016801F020010591016841F0800112
:102140000160016801F080010591016841F004011E
:102150000160016801F004010591016841F001018D
:102160000160016801F001010591016841F002017F
:102170000160016801F002010591016841F0080168
:1021800001600068012200F00800DFF83CB196020F
:10219000059031465846FEF7FDFCDFF830910022ED
:1021A00031464846FEF7F6FC002274214848FEF707
:1021B000F1FC4FF40078012241464648FEF7EAFC64
:1021C000B700002239464348FEF7E4FCDFF808A1D7
:1021D000002239465046FEF7DDFC00224FF4036131
:1021E0003E48FEF7D7FC002208215846FEF7D2FCF5
:1021F0000124CDE9006469465846CDE90245FEF761
:10220000E3FBCDE900640226CDE902656946484654
:10221000FEF7DAFB242003958DE8510069462C482F
:10222000FEF7D2FB5020CDE9000469462848CDE9ED
:102230000245FEF7C9FBCDE9008469462548CDE992
:102240000245FEF7C1FB0097CDE9014569462148EB
:102250000395FEF7B9FBCDE9007469465046CDE918
:102260000245FEF7B1FBE00203958DE85100694697
:102270001A48FEF7A9FB2002CDE900060296CDE937
:10228000035469461648FEF79FFB082003958DE826
:10229000510069465846FEF797FB10208DE8310043
:1022A00069460E480395FEF78FFB2020CDE9000418
:1022B00069460A48CDE90245FEF786FB07B0BDE84E
:1022C000F08F00003038024000200240001402402D
:1022D00000080240001C024000040240000C0240C2
:1022E0000000024010B58CB024216846FDF7B2FF13
:1022F0000024124809944FF080410A94C0E9001468
:102300004FF6FF71C0E90241046184610320CDE909
:1023100000040120CDE902040494CDE905400794AE
:10232000694606480894FEF7ECFF099409A903489A
:102330000A94FEF7C5FF0CB010BD0000600200203B
:1023400010B58CB024216846FDF784FF00241248A4
:10235000099410490A94C0E900144FF6FF71C0E9CE
:102360000241046184610320CDE900040120CDE92C
:1023700002040494CDE90540079469460648089490
:10238000FEF7BFFF099409A903480A94FEF798FFD6
:102390000CB010BD00040040A002002010B58CB0AD
:1023A00024216846FDF756FF00241248099410497D
:1023B0000A94C0E900144FF6FF71C0E902410461BC
:1023C00084610320CDE900040120CDE902040494D6
:1023D000CDE905400794694606480894FEF791FF49
:1023E000099409A903480A94FEF76AFF0CB010BDCE
:1023F00000080040E002002010B58CB0242168469F
:10240000FDF728FF00241248099410490A94C0E9F6
:1024100000144FF6FF71C0E902410461846103209A
:10242000CDE900040120CDE902040494CDE9054082
:102430000794694606480894FEF763FF099409A9C2
:1024400003480A94FEF73CFF0CB010BD000C00409E
:102450002003002010B592B000240F941C21684680
:102460001094FDF7F7FE202107A8FDF7F3FE2248A0
:10247000204901605921C0E9011440F2E731C0E967
:10248000031444618461FFF7FAFA0F940FA91A4804
:102490001094FEF715FF6020CDE900040294039428
:1024A000049405940022694613480694FFF77FFAC6
:1024B000042269461048FFF77AFA082269460E4856
:1024C000FFF775FA0C2269460B48FFF770FA07947C
:1024D000089409944FF400500A94CDE90B4007A9E1
:1024E00005480E94FEF7C2FE0348FFF721FA12B02A
:1024F00010BD000000040140600300201FB500244F
:102500000E480094019402940B49039401605A21EF
:10251000C0E901144FF6FF71C0E903148461FFF7AD
:10252000D2F80120CDE90040029400226946034818
:102530000394FFF739F81FBD00400140A0030020BD
:10254000FEE700F1300C8CEC030A00F1040C81650D
:10255000CCEC031A4364C2627047704710B503693C
:10256000C360D0E90721891A016182695418846126
:102570004269944200DD826184695242944200DAE9
:10258000826100EE101AD0ED000A90ED011AB8EE4B
:10259000C00AC91A20EE800AD0ED060AF8EEE00A59
:1025A00001EE200A00EE901A90ED021AF8EEE00A11
:1025B00001EE200ABDEEC00A10EE102A4262816AC6
:1025C0008A4200DD4162426A49428A4200DA41623F
:1025D00010BD704770B51E4A1E4B002150685C5CF0
:1025E000402C00D10846491C1A29F8DB194D5060CF
:1025F000103D195C297001211060401C1A2800D17F
:1026000000201C5C6C54491C1029F6DB10602878F3
:1026100040281CD10E4E00240836285D782804D0AE
:10262000792808D072280BD00EE0281900F07AFF24
:102630004042708008E0281900F074FF308003E009
:10264000281900F06FFFB080641C102CE5DB70BD12
:10265000EC0100204402002086B000F09FFF524CA5
:10266000DFF8489104F130000590514D09F1300038
:102670000490504E05F130000390DFF8288106F1F8
:102680003000DFF834A1DFF834B102904C48007814
:1026900001281CD14B4840F68C224169914216DD3D
:1026A00081680C22A1F6CA0191FBF2F3C8F8003050
:1026B0004368A3F6CA0393FBF2F3C8F80430006939
:1026C000A0F6CA0090FBF2F0C8F8080009E03E4905
:1026D000B1F900004242C8F80020B1F90210C8F870
:1026E0000410D8E90031D8F808005A1A02442265CB
:1026F0005A1802EB000CC91A0144C9F850C02965E8
:10270000801A30654F462078304900F081FEE06441
:1027100038782F4900F07CFEF86428782D4900F0C5
:1027200077FEE86430782C4900F072FEF06405987A
:10273000FFF714FF0498FFF711FF0398FFF70EFF50
:102740000298FFF70BFF616D2078CDE9000120238F
:1027500050465246990100F011FE796D3878CDE966
:1027600000014FF480531D4A08211D4800F006FE69
:10277000696D2878CDE900015A4604235F4640215F
:10278000104600F0FBFD716D3078CDE900013A464E
:1027900020231021104600F0F1FD6420FEF702F91D
:1027A00074E7000028020020000000205C000020E8
:1027B000B800002014010020000C02400008024074
:1027C000FC01002008060020F40100206002002027
:1027D000A0020020E00200202003002000040240AC
:1027E000002002407047FEF7E1B9000030B593B019
:1027F00030216846FDF72EFD14210CA8FDF72AFDB7
:102800001A480025016841F080510160006800F01D
:10281000805011901648016841F440410160006801
:10282000022400F4404011900120039010200094F5
:1028300006940490CDE907504FF4B470CDE9090433
:1028400004200B906846FEF76DFBFEF749FA0CA9D1
:102850000F2081E831004FF4A0500F90E00210905B
:1028600005210CA8FEF774FA13B030BD40380240C1
:10287000007000401048016841F4700101600F4889
:10288000016841F0010101600C4A00210832116029
:1028900002680B4B1A400260031D0A4A1A60026864
:1028A00022F48022026005480C300160024958067B
:1028B000803908607047000088ED00E00038024071
:1028C000FFFFF6FE103000242DE9F0473B48FEF7ED
:1028D0007CFF3B4CDFF8EC90384FA0684FF6F57A60
:1028E0004FF001080025A9F1240610B101281DD0E0
:1028F00035E000213148FFF716F9401C20613968A6
:102900004D6239680A6A02EA0A020A6239680A6A8A
:1029100042F002020A62C4F80880616949F82100A5
:10292000491C616109291AD1656118E00021234819
:10293000FFF7F9F8401CE06039684D6239680A6AAF
:1029400002EA0A020A6239680A6A0A62A560A16993
:1029500046F82100491CA161092900D1A561002286
:102960001146104656F82030934201DD01461A46C2
:10297000401C0928F6DB134A56F821002432106067
:102980000120491C092900D1002156F8213042F8C4
:102990002030401C0928F4DB84F8008000204946E0
:1029A000C4F8045051F8202056F82030401C1A4436
:1029B00015440928F6DB6560BDE8F087A003002018
:1029C000FC010020E40500200148FEF7FEBE0000E7
:1029D000600200200148FEF7F8BE0000A0020020BF
:1029E0000148FEF7F2BE0000E00200200148FEF7B9
:1029F000ECBE000020030020F0B50268254C264DF7
:102A0000264E274F274B4FF0804CA04209D06045FF
:102A100007D0A84205D0B04203D0B84201D09842B6
:102A200004D122F0700E4A6842EA0E02A0421BD086
:102A3000604519D0A84217D0B04215D0B84213D083
:102A4000984211D0184DA8420ED0184DA8420BD074
:102A5000174DA84208D0174DA84205D0164DA842E0
:102A600002D0164DA84203D122F44075CA682A4309
:102A70004D6922F080022A4302608A68C2620A68B5
:102A80008262A04201D0984201D10969016301210B
:102A90004161F0BD0000014000040040000800401A
:102AA000000C00400004014000400140004401408F
:102AB0000048014000180040001C00400020004079
:102AC00010B501F01F030121046A99408C43046290
:102AD000016A9A401143016210BD0000F0B5026A1C
:102AE00022F001020262036A42688469124E24F0F5
:102AF00073050C682C4323F002058B682B430D4DA6
:102B0000A84201D0B04205D123F00807CB683B436F
:102B100023F00403A84201D0B04205D14D6922F44C
:102B2000407215438A692A4342608461496841635F
:102B30000362F0BD0000014000040140F0B5026AEC
:102B400022F010020262026A436884690D6824F46C
:102B5000E64444EA05248D6822F0200242EA051288
:102B60000F4D104EA84201D0B04206D1CF6822F0DE
:102B7000800242EA071222F04002A84201D0B0428D
:102B800007D14D6923F4406343EA85038D6943EA25
:102B9000850343608461496881630262F0BD00007F
:102BA0000000014000040140F0B5026A22F4807286
:102BB0000262026A4368C46922F4007224F0730559
:102BC0000C68124E2C438D6842EA05220E4DA84235
:102BD00001D0B04206D1CF6822F4006242EA072257
:102BE00022F48062A84201D0B04207D14D6923F49B
:102BF000405343EA05138D6943EA05134360C461FA
:102C00004968C1630262F0BD000001400004014058
:102C100030B5026A22F480520262046A4268C369D3
:102C20000D6823F4E64343EA05238D6824F4005439
:102C300044EA0534084DA84202D0084DA84204D108
:102C40004D6922F4804242EA85124260C3614968BC
:102C50000164046230BD0000000001400004014036
:102C600070B5046A24F0010404628469056A154E93
:102C7000B04214D0B0F1804F11D0134EB0420ED0FC
:102C8000124EB0420BD0124EB04208D0114EB0429C
:102C900005D0114EB04202D0104EB04203D124F004
:102CA0000304144301E044F001041A0724F0F00483
:102CB00044EA126225F00A0301F00A011943826115
:102CC000016270BD000001400004004000080040A7
:102CD000000C00400004014000400140001800408A
:102CE00030B5046A24F0100404628469056A24F48F
:102CF000407444EA022222F470444FF6FF7202EA62
:102D000003322243A02425F0A00304EA0111194351
:102D10008261016230BD10B5806B0021C185C18424
:102D2000FEF743FF10BD70B5846B2068406994F8CE
:102D30003910C0F3C0100025212904D118B1E58451
:102D4000204600F046F82068406994F83A10C0F335
:102D50008010222904D118B1E585204600F02BF817
:102D6000E06B40F01000E0632046FEF71EFF70BDF0
:102D700010B50146806B09680968C90513D40021A4
:102D8000C1850168CA6822F48072CA6001684A6914
:102D900022F001024A6101684A6922F040024A6158
:102DA000202180F83A10FFF717F910BD10B5806B9D
:102DB000FFF713F910BD0168CA6822F49072CA6067
:102DC00001684A6922F001024A61202180F83A1024
:102DD00070470168CA6822F0C002CA60202180F8EA
:102DE0003910704710B590F83A10222901D002200E
:102DF00010BD8168B1F5805F11D0016900290168BB
:102E00001FD0496801F07F03816A4A1C82620B70FF
:102E1000C18D491E0904090CC18518D02BE0026937
:102E2000816A002A0268526805D0D2B20A80816A9B
:102E3000491C8162ECE7C2F308020A80816A891C9E
:102E4000F7E74A68816A4B1C83620A70E0E7016811
:102E5000CA6822F02002CA600168CA6822F480723F
:102E6000CA6001684A6922F001024A61202180F8A3
:102E70003A10FFF7B1F8002010BD00002DE9F04135
:102E8000044600680169E26821F440511143016180
:102E90002169A068E2690843616911432268084317
:102EA000D16849F20C6399430143D16020684169BC
:102EB000A26921F4407111434161E2696425B2F5D0
:102EC000004F9748974922684FF032083FD08A4216
:102ED00001D082427CD1FDF7E3FF00EBC00101EBA2
:102EE000001061688900B0FBF1F6FDF7D9FF00EB37
:102EF000C00101EB001061688900B0FBF1F0B0FB8C
:102F0000F5F06FF01801484306EB800108EB011063
:102F1000B0FBF5F000F0F006FDF7C2FF00EBC001DA
:102F200001EB001061688900B0FBF1F0B0FBF5F037
:102F300006EB0016FDF7B4FF00EBC00101EB00103B
:102F400061688900B0FBF1F7FDF7AAFFD2E08A4281
:102F500001D082423DD1FDF7A3FF00EBC00101EBA0
:102F6000001061684900B0FBF1F0B0FBF5F006011C
:102F7000FDF796FF00EBC00101EB0010616849000E
:102F8000B0FBF1F7FDF78CFF00EBC00101EB001087
:102F900061684900B0FBF1F0B0FBF5F06FF018018B
:102FA000484307EB800108EBC100B0FBF5F000F0EF
:102FB000F80006EB4006FDF773FF00EBC00101EBE4
:102FC000001061684900B0FBF1F7FDF769FF3CE0D4
:102FD00055E0FDF755FF00EBC00101EB0010616803
:102FE0004900B0FBF1F0B0FBF5F00601FDF748FF3A
:102FF00000EBC00101EB001061684900B0FBF1F784
:10300000FDF73EFF00EBC00101EB001061684900D5
:10301000B0FBF1F0B0FBF5F06FF01801484307EB9F
:10302000800108EBC100B0FBF5F000F0F80006EB02
:103030004006FDF725FF00EBC00101EB00106168C1
:103040004900B0FBF1F7FDF71BFF00EBC00101EBFE
:10305000001061684900B0FBF1F0B0FBF5F06FF0D3
:103060001801484307EB800108EBC100B0FBF5F005
:1030700000F00700216830448860BDE8F081FDF76A
:10308000FFFE00EBC00101EB001061688900B0FB9E
:10309000F1F6FDF7F5FE00EBC00101EB00106168F1
:1030A0008900B0FBF1F0B0FBF5F06FF01801484378
:1030B00006EB800108EB0110B0FBF5F000F0F00624
:1030C000FDF7DEFE00EBC00101EB00106168890036
:1030D000B0FBF1F0B0FBF5F006EB0016FDF7D0FE0B
:1030E00000EBC00101EB001061688900B0FBF1F753
:1030F000FDF7C6FE00EBC00101EB0010616889001E
:10310000B0FBF1F0B0FBF5F06FF01801484307EBAE
:10311000800108EB0110B0FBF5F000F00F00A9E70B
:10312000001401400010014090F83910212901D00D
:10313000022070478168B1F5805F016A0BD04A1C9C
:103140000262026809785160C18C491E0904090CA9
:10315000C1840ED017E009880268C1F308015160EC
:1031600001690029016A02D0491C0162ECE7891C4F
:10317000FBE70168CA6822F08002CA600068C16883
:1031800041F04001C160002070472DE9F0419846B0
:1031900017460E460446069D1DE0681C1BD02DB147
:1031A000FDF7FEFCA0EB0800A84214D92068C16816
:1031B00021F4D071C1602068416921F001014161B1
:1031C000202084F8390084F83A00002084F8380080
:1031D0000320BDE8F0812068006836EA000004D0D2
:1031E0000020B842D9D00020F3E70120F9E7000021
:1031F0000148FEF7DBBC0000E003002010B500F042
:103200000FF8BDE810400148FEF7D0BC20040020B4
:103210000148FEF7CBBC000060040020FEE7000080
:1032200038B51C4800680168C90631D5016800241A
:1032300041680091184909681749091D0968174A2A
:10324000D114904202D915484C3804E0144A9042F7
:1032500003D912485038016008E0114B104A603B16
:10326000B83A984201D9D16000E091600948FEF770
:1032700070FCFFF7AFF90B4900200C54401C1A28D2
:10328000FBDBBDE838401A2206490248FEF758BE6B
:1032900038BD000020040020004400405864024073
:1032A000B8600240440200200907090E002804DB30
:1032B00000F1E02080F80014704700F00F0000F1EA
:1032C000E02080F8141D704702E008C8121F08C1F2
:1032D000002AFAD170477047002001E001C1121F97
:1032E000002AFBD170470000FDF768FCFFF77EFA6B
:1032F000FEF702FFFEF7D2FEFFF722F81C481B493B
:103300004FF4E13500240160C0E901540C26C4608B
:10331000C0E904468461C461FEF7D0FC1448154935
:1033200080380160C0E90154C460C0E9044684618A
:10333000C461FEF7C3FCFEF7D5FF0D480E494038C7
:103340000160C0E90154C460C0E904468461C461FD
:10335000FEF7B4FCFFF722F8FFF74EF8FFF77AF814
:10336000FFF7CCF8FFF778F9FCE7000000480040D1
:103370006004002000100140004400402DE9F047A7
:103380009846DDE9085491460E460746002C09DDB3
:103390004FF00002FDF7FEFB012241464846FDF7D3
:1033A000F9FB0CE00BDA4FF0000219464846FDF736
:1033B000F1FB012231463846FDF7ECFB644204F193
:1033C0000900132800D20024012D0AD0022D0ED0AE
:1033D000032D14D0042D10D104EB840040000B49C0
:1033E0000AE004EB8400094940000C3904E004EBD6
:1033F00084000649400008390860BDE8F08704EB06
:10340000840002494000091FF6E700004004014023
:103410002DE9F0410C462DED048B0646FDF7C0FB6F
:1034200005462068406A3A4C012E07D0022E07D08C
:10343000032E07D0042E07D0216907E0216804E09D
:10344000616802E0A16800E0E1682161471A01D4E7
:103450003A4600E07A42B2F5004F08DB884203DDCD
:10346000A7F57F47FF3F02E04FF6FF710F449FED46
:10347000299B012E06D0022E11D0032E1CD0042E23
:1034800027D032E020606069281AFCF76EFF53EC09
:10349000192BFCF7EAFE41EC180B656125E0606032
:1034A000A069281AFCF761FF53EC192BFCF7DDFE2D
:1034B00041EC180BA56118E0A060E069281AFCF740
:1034C00054FF53EC192BFCF7D0FE41EC180BE561CF
:1034D0000BE0E060206A281AFCF747FF53EC192B39
:1034E000FCF7C3FE41EC180B25623846FCF72CFFB5
:1034F0009FED0A1B53EC112BFCF7B7FE53EC182B76
:10350000FCF7B3FEBDEC048BBDE8F041FCF73ABF1D
:103510007001002000000000004CED4000000000A1
:1035200000709740F0B5002103460C460D46084652
:103530000A465E5CA6F13007092F06D92D2E06D16A
:103540005E187678303E092E01D80A4604E0491C00
:103550000A29EEDB114601E0914202D15E5C2D2E7C
:1035600006D05E5C303E092E04D86D1C491CF3E782
:103570000124FBE711192A446FF02F06224406E0CC
:103580005D5C00EB800006EB40002844491C8A4249
:10359000F6DC012C00D14042F0BD000010B53C210A
:1035A0002DED028B5B48FDF7E3FF3C215A48FDF708
:1035B000DFFF3C215948FDF7DBFF3C215848FDF770
:1035C000D7FF00215748FEF7D5F800215648FEF7EF
:1035D00087FA04215448FEF783FA08215248FEF77F
:1035E0007FFA0C215048FEF77BFA50480068C1680A
:1035F00041F01001C1601A224D494C48FEF7A0FC71
:103600004C4C0C2223464C494848FEF7E7FC4A49FB
:1036100023460722C91F4548FEF7E0FC46492346DA
:103620001B220C314148FEF7D9FC4349234629228D
:1036300027313E48FEF7D2FC5C214048FCF70AFEE9
:103640005C213F48FCF706FE5C213E48FCF702FE89
:103650005C213D48FCF7FEFD384901209FED3B8A87
:10366000087037490220DFED3A8A08703549032097
:103670004FF4FA740870344904202346087000227D
:10368000F0EE482AB0EE482AF0EE481A6421B0EE77
:10369000681AF6EE000AB6EE000A2848FEF751FF57
:1036A00023460022F0EE482AB0EE482AF0EE481AEF
:1036B0006421B0EE681AF6EE000AB6EE000A204861
:1036C000FEF73FFF23460022F0EE482AB0EE482ADC
:1036D000F0EE481A6421B0EE681AF6EE000AB6EE73
:1036E000000A1848FEF72DFFF0EE482AB0EE482AEF
:1036F000F0EE481AB0EE681ABDEC028B23460022A9
:10370000BDE810406421F6EE000AB6EE000A0E484D
:10371000FEF717BF60020020A0020020E002002098
:1037200020030020A00300206003002020040020CC
:1037300044020020FFFF0F009B010020000000203A
:103740005C000020B80000201401002000000000F0
:103750003333B33E000610160006101600000000BA
:103760000000000001020304060708090000000031
:103770000102030494370008000000202802000022
:10378000E0040008FC3700082802002008080000B8
:10379000D832000801180213140A41642C09FD5C98
:1037A00001252F41542B52535407480943574D4F7D
:1037B00044453D310C38164A41503D224C4150227F
:1037C0002C226C6D35323031333134221B280C49B8
:1037D0005053544152543D2254431E00162E313949
:1037E000322E3136382E3133342E313238222C35C8
:0C37F000303030320182101324F400004D
:04000005080001AD41
:00000001FF
